:1000000017EF00F0EA6A0E0EE96EEF500EE0050EF3
:10001000016E006A002EFED7012EFBD72E0E006E59
:10002000002EFED700D0EF2EF2D73EEF00F0F86A98
:10003000D09EC150C00B0F09C16E070EB46E046A8A
:10004000056A600E926E000E936E946E956E0D6A48
:100050000C6A0B6A010E0A6E0D5207E10C5205E1A3
:100060000B5203E10A5000080FE20AC08BFF0BC0DD
:100070008CFF0CC08AFFC80E0E6EC4D7D8900A360B
:0C0080000B360C360D36E8D7E2D7030033
:020000040030CA
:0E0000000001181E000581000FC00FE00F4028
:00000001FF
;PIC18F4620
;CRC=55DB  CREATED="19-jun.-19 11:31"
