:1000000017EF00F0EA6A0C0EE96EEF500EE0050EF5
:10001000016E006A002EFED7012EFBD72E0E006E59
:10002000002EFED700D0EF2EF2D736EF00F0F86AA0
:10003000D09EC150C00B0F09C16E070EB46E046A8A
:10004000056A000E926E936E946E956E96909692DF
:10005000969496960F0E0A6E0A5000080EE20AC099
:100060008BFF020E0B6EFA0E0C6ECCD70B2EFBD74D
:0E0070000A50100DF3CF0AF0EFD7ECD70300C3
:020000040030CA
:0E0000000001181E000581000FC00FE00F4028
:00000001FF
;PIC18F4620
;CRC=AF5E  CREATED="19-jun.-19 09:20"
