:0400000056EF00F0C7
:08000800046ED8CF05F0E0CF33
:1000100006F00001E9CF0CF0EACF07F0E1CF08F0DD
:10002000E2CF09F0D9CF0AF0DACF0BF0F3CF12F01C
:10003000F4CF13F0FACF14F000C00EF001C00FF0AF
:1000400002C010F003C011F0F2AA2AEF00F0F2B4DF
:100050004BEF00F00EC000F00FC001F010C002F036
:1000600011C003F00CC0E9FF07C0EAFF078E08C00B
:10007000E1FF09C0E2FF0AC0D9FF0BC0DAFF12C0DE
:10008000F3FF13C0F4FF14C0FAFF045006C0E0FFF2
:1000900005C0D8FF10003C0ED76EB00ED66E1C2ADD
:1000A0001D2A1E2A1F2AF2942AEF00F0F86AD09E19
:1000B000078E1C6A1D6A1E6A1F6A010E206E216E61
:1000C000226E236EC150C00B0F09C16E070EB46EB5
:1000D000166A176A600ED36E400E9B6ED350820E66
:1000E000D56E3C0ED76EB00ED66EF28AC00EF212EE
:1000F000000E926E936E946E956E96909692969474
:1001000096961C50020808E11C6AD89020362050B0
:10011000400802E1010E206E20C089FF1D50040836
:1001200008E11D6AD89021362150000802E1010E35
:10013000216E21C08BFF1E50070808E11E6AD8906F
:1001400022362250000802E1010E226E22C08CFFEE
:100150001F500A0808E11F6AD89023362350000870
:0E01600002E1010E236E23C08AFFCBD70300FD
:020000040030CA
:0E0000000001181E000581000FC00FE00F4028
:00000001FF
;PIC18F4620
;CRC=81FA  CREATED="14-jun.-19 13:51"
