:1000000073EF00F081B803D0010E086E0ED081BAF4
:1000100003D0020E086E09D081BC03D0030E086E17
:1000200004D081BE02D0040E086E08C001F091EF2A
:1000300000F00C500E02F3CF01F0F4CF00F00F02ED
:10004000F35000260D500E02F3500020026EC7EF51
:1000500000F0EA6A090EE96EEF500EE0050E016E3F
:10006000006A002EFED7012EFBD72E0E006E002E4A
:10007000FED700D0EF2EF2D71200086A085002080F
:100080000EE389688A688D68C80E096EE2DF896AA6
:100090008A6A8D6AC80E096EDCDF082AEFD7D5EFB1
:1000A00000F0016A026A006A036A0F5002E10E5012
:1000B00018E0100E106ED8900C360D360036033650
:1000C0000F50035C02E10E50005C07E30E50005E2F
:1000D000D8A003060F50035ED88001360236102EDA
:1000E000EAD7E8EF00F0F86AD09E046AC150C00B6E
:1000F0000F09C16E070EB46E600ED36E400E9B6E7C
:10010000D350C00E926EF00E936EFF0E946E956EED
:100110009690969296949686066A056A04C008F0B0
:1001200071D701C007F0010E075CFC0F56E2040F07
:100130000BEF01F08250096A086E8350036A0824AD
:10014000016E0950032201C005F003C006F0046AE5
:1001500044D08250096A086E8350036A085C006EBE
:100160000350095800C005F0066E046A36D082506C
:10017000096A086E8350036A0A6E03C00BF009C057
:100180000DF008C00CF003C00FF00E6E52D701C086
:1001900005F002C006F0046A20D08350096A086E98
:1001A000085206E1095204E168D7046A16D015D056
:1001B0008250096A086E8350036A0A6E03C00BF00E
:1001C00009C00DF008C00CF003C00FF00E6E69D727
:1001D00001C005F002C006F0046A05C089FF0630C0
:1001E000096E0530086E09320832093208320932C8
:1001F00008320932083209320832030E091608C0E3
:100200008AFF096A0630086E08323F0E081608C0D9
:100210008DFF84D70300E824F76AF736310FF66EB6
:10022000020EF7220A00F550FA6E0800F550F96E3A
:08023000340152016E019A0134
:020000040030CA
:0E0000000002181E000581000FC00FE00F4027
:00000001FF
;PIC18F4620
;CRC=1FD3  CREATED="03-abr.-19 18:46"
