:1000000017EF00F0EA6A130EE96EEF500EE0050EEE
:10001000016E006A002EFED7012EFBD72E0E006E59
:10002000002EFED700D0EF2EF2D7AAEF00F0F86A2C
:10003000D09E0B6A010E0A6E0D6A800E0C6E0F6A5E
:10004000010E0E6E109010921094C150C00B0F094B
:10005000C16E070EB46E046A056AFF0E926E000E42
:10006000936E946E956E9690969296949696126A6A
:10007000116A126A80CF11F01150090B136E146AC5
:10008000135202E1145202E010800AD01150090B01
:10009000136E146A1350090802E1145201E0109023
:1000A00010A00BD0D8900A360B360B5203E10A5041
:1000B0007F0803E20B6A010E0A6E1150120B136ED9
:1000C000146A135202E1145202E010820AD0115055
:1000D000120B136E146A1350120802E1145201E05D
:1000E000109210A20AD0D8900D320C320C2C05D0F0
:1000F0000D5203E10D6A800E0C6E1150340B136E1D
:10010000146A135202E1145202E010840AD0115012
:10011000340B136E146A1350340802E1145201E0D8
:10012000109410A40ED00E360F360E360F36FC0E7D
:100130000E160F5203E10E507F0803E20F6A010E04
:100140000E6E0AC08AFF0CC08BFF0EC08CFF640EBF
:08015000136E58D78ED703008F
:020000040030CA
:0E0000000001181E000581000FC00FE00F4028
:00000001FF
;PIC18F4620
;CRC=0D20  CREATED="20-jun.-19 14:11"
