:040000007EEF00F09F
:08000800046ED8CF05F0E0CF33
:1000100006F00001E9CF0CF0EACF07F0E1CF08F0DD
:10002000E2CF09F0D9CF0AF0DACF0BF0F3CF12F01C
:10003000F4CF13F0FACF14F000C00EF001C00FF0AF
:1000400002C010F003C011F09DAA2AEF00F09EBA82
:100050004BEF00F00EC000F00FC001F010C002F036
:1000600011C003F00CC0E9FF07C0EAFF078E08C00B
:10007000E1FF09C0E2FF0AC0D9FF0BC0DAFF12C0DE
:10008000F3FF13C0F4FF14C0FAFF045006C0E0FFF2
:1000900005C0D8FF1000036A3B501D0FE96E000E2B
:1000A0000320EA6E9EAAFED7AECFEFFF3B2A1C804C
:1000B0003B501E0801E13B6A9E9A2AEF00F0496E10
:1000C000677265736120756E2070616C6162726128
:1000D0002E2E2E2000000A200D000900F5520DE002
:1000E000F6CF3DF0F7CF3EF0F5509EA8FED7AD6EAF
:1000F0003DC0F6FF3EC0F7FFF0D71200F86AD09E71
:10010000078EB886A00EAF6E010EB06EA60EAC6E56
:10011000900EAB6E3B6AC150C00B0F09C16E070E4B
:10012000B46E166A176A9D8AC00EF212000E926EA5
:10013000936E800E946E000E956EBE0EF66E000EDF
:10014000F76ECBDFD60EF66E000EF76EC6DF1CA084
:100150001CD03C6A3B503C5C17E2036A3C501D0FCC
:10016000E96E000E0320EA6EEFCF3DF03D509EA8F1
:10017000FED7AD6E200E9EA8FED7AD6E0A0E9EA8CD
:0E018000FED7AD6E3C2AE6D71C90E1D70300F7
:020000040030CA
:0E0000000001181E000581000FC00FE00F4028
:00000001FF
;PIC18F4620
;CRC=9779  CREATED="25-jun.-19 12:56"
