:1000000017EF00F0EA6A0E0EE96EEF500EE0050EF3
:10001000016E006A002EFED7012EFBD72E0E006E59
:10002000002EFED700D0EF2EF2D741EF00F0F86A95
:10003000D09EC150C00B0F09C16E070EB46E046A8A
:10004000056A000E926E936E946E956E96909692DF
:10005000969496960D6A0C6A0B6A0F0E0A6E0D52F4
:1000600007E10C5205E10B5203E10A5000081CE2C3
:100070000AC08BFF0BC08CFF0CC08AFFC80E0E6E2F
:10008000C1D70A360B360C360D360A360B360C360F
:100090000D360A360B360C360D360A360B360C3654
:0C00A0000D36F00E0A16DBD7D5D7030092
:020000040030CA
:0E0000000001181E000581000FC00FE00F4028
:00000001FF
;PIC18F4620
;CRC=8121  CREATED="19-jun.-19 11:33"
