:0400000001EF01F01B
:08000800046ED8CF05F0E0CF33
:1000100006F00001E9CF0CF0EACF07F0E1CF08F0DD
:10002000E2CF09F0D9CF0AF0DACF0BF0F3CF12F01C
:10003000F4CF13F0FACF14F000C00EF001C00FF0AF
:1000400002C010F003C011F09DAA2AEF00F09EBA82
:100050004BEF00F00EC000F00FC001F010C002F036
:1000600011C003F00CC0E9FF07C0EAFF078E08C00B
:10007000E1FF09C0E2FF0AC0D9FF0BC0DAFF12C0DE
:10008000F3FF13C0F4FF14C0FAFF045006C0E0FFF2
:1000900005C0D8FF10009EAAFED7AECF1DF01C8071
:1000A0009E9A2AEF00F050726573696F6E61207539
:1000B0006E61207465636C612E2E2E2000000A2074
:1000C0000D0063617261637465722025632C207674
:1000D000616C6F722025752C206865786120257809
:1000E00020200A200D000900F5520DE0F6CF1EF089
:1000F000F7CF1FF0F5509EA8FED7AD6E1EC0F6FFDD
:100100001FC0F7FFF0D712000900F6CF22F0F7CF9B
:1001100023F0F5509EA8FED7AD6E22C0F6FF23C097
:10012000F7FF212EF1D712002450016A235C03E26D
:1001300023C000F00CD0006A080E256E233600366E
:100140002450005CD8B0006E0136252EF7D712007F
:10015000015021C023F0640E246EE6DF00C021F0C0
:100160000150300E07E122A20DD022B60BD022B8EA
:10017000200E03D0229622982280012601509EA8AC
:10018000FED7AD6E21C023F00A0E246ECDDF00C075
:1001900021F00150300E06E122B609D022A007D08E
:1001A00022B8200E012601509EA8FED7AD6E300E5B
:1001B000212621509EA8FED7AD6E4CEF01F022BE45
:1001C00010D00F0E006E213800160A0E005C03E2FC
:1001D000300E002602D02250002600509EA8FED7E6
:1001E000AD6E0F0E21160A0E215C02E2300E02D017
:1001F000229E2250212621509EA8FED7AD6E58EF98
:1002000001F0F86AD09E078EB886A00EAF6E010E80
:10021000B06EA60EAC6E900EAB6EC150C00B0F0947
:10022000C16E070EB46E166A176A9D8AC00EF2126E
:10023000000E926E936E800E946E000E956EA60E5A
:10024000F66E000EF76E4FDFBE0EF66E000EF76E06
:100250004ADF1CA034D01C90010E1D241E6E010E1E
:100260001D241F6E010E1D24206EC20EF66E000EA0
:10027000F76E090E216E48DF1E509EA8FED7AD6EA8
:10028000CD0EF66E000EF76E080E216E3DDF1FC01C
:1002900021F01B0E226E5CD7D70EF66E000EF76EA5
:1002A000070E216E31DF20C021F0570E226E87D756
:1002B000E00EF66E000EF76E050E216E25DFC9D733
:0202C000030039
:020000040030CA
:0E0000000001181E000581000FC00FE00F4028
:00000001FF
;PIC18F4620
;CRC=BC61  CREATED="24-jun.-19 09:29"
