:0400000099EF00F084
:08000800046ED8CF05F0E0CF33
:1000100006F00001E9CF0CF0EACF07F0E1CF08F0DD
:10002000E2CF09F0D9CF0AF0DACF0BF0F3CF12F01C
:10003000F4CF13F0FACF14F000C00EF001C00FF0AF
:1000400002C010F003C011F09DAA2AEF00F09EBA82
:100050004BEF00F00EC000F00FC001F010C002F036
:1000600011C003F00CC0E9FF07C0EAFF078E08C00B
:10007000E1FF09C0E2FF0AC0D9FF0BC0DAFF12C0DE
:10008000F3FF13C0F4FF14C0FAFF045006C0E0FFF2
:1000900005C0D8FF1000036A3D501F0FE96E000E27
:1000A0000320EA6E9EAAFED7AECFEFFF3D2A1C804A
:1000B0003D501E0801E13D6A1F503C080CE1020E54
:1000C0003D5C036A1F0FE96E000E0320EA6EEF50DD
:1000D0003E0801E11D80010E3D5C036A1F0FE96EC1
:1000E000000E0320EA6EEF500D0801E11E809E9A7B
:1000F0002AEF00F0496E677265736120756E20709B
:10010000616C616272612E2E2E2000000A200D00AB
:100110000900F5520DE0F6CF3FF0F7CF40F0F55073
:100120009EA8FED7AD6E3FC0F6FF40C0F7FFF0D7E8
:100130001200F86AD09E078EB886A00EAF6E010E30
:10014000B06EA60EAC6E900EAB6E3D6AC150C00B89
:100150000F09C16E070EB46E166A176A9D8AC00E2B
:10016000F212000E926E936E800E946E000E956EDB
:10017000F40EF66E000EF76ECBDF0C0EF66E010E6F
:10018000F76EC6DF1CA01CD01C901DA019D01EA0AD
:1001900017D01D901E90010E3E6E020E3D5C3E5C1F
:1001A0000FE2036A3E501F0FE96E000E0320EA6E55
:1001B000EFCF3FF03F509EA8FED7AD6E3E2AEDD761
:0401C000E1D7030080
:020000040030CA
:0E0000000001181E000581000FC00FE00F4028
:00000001FF
;PIC18F4620
;CRC=A70A  CREATED="25-jun.-19 13:46"
