:1000000017EF00F0EA6A0F0EE96EEF500EE0050EF2
:10001000016E006A002EFED7012EFBD72E0E006E59
:10002000002EFED700D0EF2EF2D757EF00F0F86A7F
:10003000D09EC150C00B0F09C16E070EB46E046A8A
:10004000056A000E926E936E946E956E96909692DF
:10005000969496960D6A0C6A0B6A800E0A6E0A5088
:10006000200B0E6E0F6A106A116A0E50200808E10C
:100070000F5206E1105204E1115202E10AC08CFF56
:100080000A50200B0E6E0F6A106A116A0E5020087B
:1000900006E10F5204E1105202E1115201E08C6AB4
:1000A0000AC08BFF020E0E6E960E0F6EABD70E2E91
:1000B000FBD7D8900D320C320B320A320A520BE1C8
:1000C0000B5209E10C5207E10D5205E10D6A0C6A71
:0A00D0000B6A800E0A6EC3D703000E
:020000040030CA
:0E0000000001181E000581000FC00FE00F4028
:00000001FF
;PIC18F4620
;CRC=105B  CREATED="19-jun.-19 12:36"
