:0400000050EF04F0C9
:08000800046ED8CF05F0E0CF33
:1000100006F00001E9CF0CF0EACF07F0E1CF08F0DD
:10002000E2CF09F0D9CF0AF0DACF0BF0F3CF12F01C
:10003000F4CF13F0FACF14F000C00EF001C00FF0AF
:1000400002C010F003C011F09DAA2AEF00F09EBA82
:100050004BEF00F00EC000F00FC001F010C002F036
:1000600011C003F00CC0E9FF07C0EAFF078E08C00B
:10007000E1FF09C0E2FF0AC0D9FF0BC0DAFF12C0DE
:10008000F3FF13C0F4FF14C0FAFF045006C0E0FFF2
:1000900005C0D8FF1000036A41501F0FE96E000E23
:1000A0000320EA6E9EAAFED7AECFEFFF412A1C8046
:1000B0001E8041501E0801E1416A010E415C036A45
:1000C0001F0FE96E000E0320EA6EEF500D0801E1EC
:1000D0001D809E9A2AEF00F0496E67726573612059
:1000E000756E206E756D65726F3A20000900F552CD
:1000F0000DE0F6CF4DF0F7CF4EF0F5509EA8FED7AD
:10010000AD6E4DC0F6FF4EC0F7FFF0D79DEF04F087
:100110009EA8FED7AD6EC3EF04F05C50D8B471D08A
:10012000006E6050D8B46DD0002604E3810E002626
:1001300068E204D07F0E005E64E363E05DC064F0BB
:100140006150641A5D8E618E5F506302F4CF66F079
:100150005E506202F4CF03F0F3CF65F06302F35018
:100160006626F4506522000E03225F506202F350AF
:100170006626F4506522000E026A032202225D50B8
:100180006302F3506526F4500322000E02225D50F4
:100190006202F3500326F4500222000E016A01228B
:1001A0005F506102F3506526F4500322000E0222D4
:1001B00001225E506102F3500326F4500222000E29
:1001C00001225D506102F3500226F4500122002A00
:1001D00001BE05D065360336023601360006000E34
:1001E00065AE0AD0032A02220122015005E1025025
:1001F00003E1035001E1002A64BE018E64AE019E5A
:1002000004D0006A016A026A036A12008E0E006E50
:1002100061C001F060C002F0036A015209E102C04E
:1002200001F0026A080E005E015202E1006A08D085
:10023000D89001BE04D0023601360006F9D7019EDF
:1002400012006050D8B4A5D06C6E6450D8B4A1D060
:100250006C5E05E37F0E6C26D8B09BD006D0810E75
:100260006C5ED8A096D0D8B494D06CC000F0016A6F
:10027000026A036A6B6A61C06AF06A8E62C069F0E2
:1002800063C068F0190E6C6E6750685E0DE2010E77
:10029000695E0AE26A5E08E26B5E06E26B2A6A2A1F
:1002A000692A6750682628D06650695E12E2010EFE
:1002B0006A5E0FE26B5E0DE26B2A6A2A665069265F
:1002C0006750682619E3692A17E16A2A15E16B2A43
:1002D00013D0655080096A5E0EE2010E6B5E0BE280
:1002E0006B2A655080096A2666506926E9E36A2A06
:1002F000E7E16B2AE5D703806C2E01D00BD0D890B4
:10030000683669366A366B36D8900336023601365F
:100310006D36BAD76DA006D0D890013202320332C2
:100320006D3202D0000635E06DBE1ED0D890683622
:1003300069366A366B366750685E07E2010E695EA1
:1003400004E26A5E02E26B5E1AE36650695E05E2F1
:10035000010E6A5E02E26B5E12E3655080096A5E1E
:1003600003E2010E6B5E0BE3032A09E1022A07E1B7
:10037000012A05E1002A0DE001320232033261C098
:100380006CF065506C1A6CAE02D0018E06D0019EE6
:1003900004D0006A016A026A036A82EF03F0800EE9
:1003A000D8B2651A6A6A6B6A61C069F06550691AE9
:1003B0006050D8B4DCD0686E006E6450D8B4E0D021
:1003C000685ED8B481D03DE365C06EF06E8E66C0C5
:1003D0006DF067C06CF06B6AD8906E326D326C3223
:1003E0006B32682EF8D769AE03D06A80DDD06A9090
:1003F00068906A88EA6A630EE96EE9D06A9869BE15
:100400000AD068A013D06E326D326C326B32002A83
:10041000D8B4C5D00BD06EBE0CD0D8906B366C362D
:100420006D366E360006D8B4BAD0F5D76A8C6BD06C
:100430006A9C61C069F061AE02D06E8EA9D06E9EDA
:10044000A7D064C068F064C000F06050685E61C00E
:100450006EF06E8E62C06DF063C06CF06B6AD89007
:100460006E326D326C326B32682EF8D769AE03D0C3
:100470006A829AD06A9268906A8AEA6A670EE96E1E
:10048000A6D06A9A69BE0AD068A013D06E326D32C7
:100490006C326B32002AD8B482D00BD06EBE0CD036
:1004A000D8906B366C366D366E360006D8B477D081
:1004B000F5D76A8E28D06A9E65C069F065AE02D015
:1004C0006E8E66D06E9E64D065C06EF06E8E66C015
:1004D0006DF067C06CF069AE04D06E9E6A8464D023
:1004E0006A946B6A6890EA6A630EE96E70D069BEBE
:1004F0001CD061C069F068A006D06E326D326C32DB
:100500006B32002A4CE06BAE0BD06C2A09E16D2AED
:1005100007E16E2A05E16E326D326C32002A3FE04F
:100520006ABC86D76ABEC7D71CD0800E6E1A6EAE64
:1005300004D03AD065C069F00AD061C069F06E524B
:1005400006E16D5204E16C5202E1006A21D06EBEF8
:1005500008D0D8906B366C366D366E36002EF7D7D5
:100560001ED069AE02D06E8E13D06E9E11D064C0C4
:1005700000F065C06EF066C06DF067C06CF008D02A
:1005800060C000F061C06EF062C06DF063C06CF0DE
:100590006EC001F06DC002F06CC003F034D0006A90
:1005A000016A026A036A2FD06B6A6C1E6D1E6E1E92
:1005B0006B1E6B2A05E16C2A03E16D2A01E16E2AAC
:1005C0006AB015D76AB256D76AB48AD7B3D7EF5094
:1005D0006C2605E36D2A03E16E2AD8B46880ED52DB
:1005E000EF506D2603E36E2AD8B46880ED52EF50C9
:1005F000EFBE01D0800A6E26D8B068806AB8FED6F9
:100600006ABA3FD774D71200546A536A526A7F0E8F
:10061000516E586A576A566A556A59805992599468
:100620005B6A4D504E1005E1006A016A026A036A76
:1006300003D15B505B2A036A4D24E96E4E500320C0
:10064000EA6EEFCF5AF05A52D8B4BBD059A00FD0AF
:100650005A5020080CE059905A502B0803E1599247
:10066000A5D005D05A502D0802E159829FD059B02B
:1006700007D05A502E0804E159B402D0598496D0BC
:1006800059B091D05A502F08D8B08DD05A5039084F
:10069000D8A089D0300E5A5E59A44FD054C05FF014
:1006A00053C05EF052C05DF051C05CF0636A626A94
:1006B000200E616E820E606E30DD03C054F002C009
:1006C00053F001C052F000C051F0616A5AC060F0AE
:1006D0009DDD03C05FF002C05EF001C05DF000C0B0
:1006E0005CF003C063F002C062F001C061F000C0C2
:1006F00060F054C067F053C066F052C065F051C05E
:1007000064F09FD5D89258C063F057C062F056C0CD
:1007100061F055C060F003C067F002C066F001C030
:1007200065F000C064F03BDE03C058F002C057F033
:1007300001C056F000C055F035D05F6A5E6A200EE9
:100740005D6E820E5C6E58C063F057C062F056C09A
:1007500061F055C060F0E1DC03C05FF002C05EF004
:1007600001C05DF000C05CF0616A5AC060F04EDD0F
:10077000D8925FC063F05EC062F05DC061F05CC0A3
:1007800060F003C067F002C066F001C065F000C011
:1007900064F005DE03C058F002C057F001C056F007
:1007A00000C055F003D059B001D00BD05B505B2A8C
:1007B000036A4D24E96E4E500320EA6EEFCF5AF0E3
:1007C00042D759A217D05F6A5E6A800E5D6E7F0EB7
:1007D0005C6E58C063F057C062F056C061F055C0FF
:1007E00060F09BDC03C058F002C057F001C056F027
:1007F00000C055F04F50501017E05B520CE05B0604
:100800004FC0E9FF50C0EAFF5B504D24EF6E000E71
:100810004E20EC6E09D04FC0E9FF50C0EAFF4EC039
:10082000ECFFED524DC0EFFF55C000F056C001F097
:1008300057C002F058C003F0E4EF04F08E0E006ED3
:100840004D50005E4EC002F04FC001F0028E0052CB
:1008500009E0D890025202E1015204E00232013272
:10086000002EF7D74EAE05D0011E021E012AD8B4C5
:10087000022AF5EF04F0EA6A4D0EE96EEF500EE041
:10088000050E016E006A002EFED7012EFBD72E0E3C
:10089000006E002EFED700D0EF2EF2D76FEF05F0DE
:1008A000F86AD09E078EB886A00EAF6E010EB06EAD
:1008B000A60EAC6E900EAB6E416A436A426A4490DB
:1008C00044924494C150C00B0F09C16E070EB46E20
:1008D00005D002001600001E401F0000000EF86E3A
:1008E000080EF76ED20EF66E0900F550006E000A83
:1008F00013E00900F550016EE8BE05D00F0BEA6E5B
:100900000900F5CFE9FF01BC090001AC0900F5CFF2
:10091000EEFF004EE9D7F9D7F86A000E926E936E9B
:10092000800E946E000E956EC00EF2129D8AD80E47
:10093000F66E000EF76E76EF00F00D0E9EA8FED755
:10094000AD6E0A0E9EA8FED7AD6E1CA001D01C9005
:10095000466A010E456E486A800E476E4A6A010E6D
:10096000496E1EA013D04B6A41504B5C0EE2036AE5
:100970004B501F0FE96E000E0320EA6EEFCF4DF0D3
:100980004D5088EF00F04B2AEFD71E904C6A415033
:100990004C5C14E2036A4C501F0FE96E000E0320FA
:1009A000EA6EEF500D0808E1036A4C501F0FE96E24
:1009B000000E0320EA6EEF6A4C2AE9D74E6A1F0E3A
:1009C0004D6E506A4F6A20D603C040F002C03FF01F
:1009D00001C03EF000C03DF040C050F03FC04FF0BD
:1009E0003EC04EF03DC04DF029D702C043F001C0DB
:1009F00042F01CA06BD01DA069D01C901D904250ED
:100A0000490B4D6E4E6A4D5202E14E5202E0448057
:100A10000AD04250490B4D6E4E6A4D50490802E1D2
:100A20004E5201E0449044A00BD0D8904536463653
:100A3000465203E14550800803E2466A010E456EC6
:100A40004250920B4D6E4E6A4D5202E14E5202E000
:100A500044820AD04250920B4D6E4E6A4D5092081D
:100A600002E14E5201E0449244A20AD0D8904832AA
:100A70004732472C05D0485203E1486A800E476E42
:100A80004250240B4D6E4350010B4E6E4D5202E10D
:100A90004E5202E044840DD04250240B4D6E435020
:100AA000010B4E6E4D50240803E14E2C01D001D0B5
:100AB000449444A40BD0D89049364A364A5203E1B4
:100AC0004950800803E24A6A010E496E45C089FF19
:100AD00047C08AFF49C08CFF640E4D6ECCD641D70B
:020AE000030011
:020000040030CA
:0E0000000002181E000581000FC00FE00F4027
:00000001FF
;PIC18F4620
;CRC=3DAC  CREATED="27-jun.-19 20:30"
